:020000040800F2
:10000000000001207598000861250008632500089C
:100010006525000867250008692500080000000024
:10002000000000000000000000000000017F000848
:100030006B25000800000000A17F00086D25000866
:10004000BD980008BD980008BD980008BD9800083C
:10005000BD980008BD980008BD980008BD9800082C
:10006000BD980008BD980008BD980008BD9800081C
:10007000BD980008BD980008BD980008BD9800080C
:10008000BD980008BD980008BD980008BD980008FC
:10009000BD980008BD980008BD980008BD980008EC
:1000A000BD980008BD980008BD980008BD980008DC
:1000B000BD980008BD980008BD980008BD980008CC
:1000C000BD980008BD980008BD980008BD980008BC
:1000D000BD980008BD980008BD980008BD980008AC
:1000E000BD980008BD980008BD980008BD9800089C
:1000F000BD980008BD980008BD980008BD9800088C
:10010000BD98000885250008BD980008BD98000826
:10011000BD980008BD980008BD980008BD9800086B
:10012000BD980008BD980008BD98000895250008F6
:1001300000000000000000000000000000000000BF
:1001400000000000000000000000000000000000AF
:10015000000000000000000000000000000000009F
:10016000000000000000000000000000000000008F
:10017000000000000000000000000000000000007F
:10018000000000000000000000000000000000006F
:10019000000000000000000000000000000000005F
:1001A000000000000000000000000000000000004F
:1001B000000000000000000000000000000000003F
:1001C000000000000000000000000000000000002F
:1001D000000000000000000000000000000000001F
:0401E0005FF8E0F1F3
:1001F00010B5054C237833B9044B13B10448AFF361
:1002000000800123237010BD600100200000000069
:1002100090A1000808B5034B1BB103490348AFF395
:10022000008008BD000000006401002090A10008CB
:1002300080F0004002E000BF81F0004142001FBF9B
:100240005FEA410392EA030F7FEA226C7FEA236CA4
:100250006AD04FEA1262D2EB1363C1BFD218414099
:1002600048404140B8BF5B42192B88BF704710F02F
:10027000004F40F4000020F07F4018BF404211F0D2
:10028000004F41F4000121F07F4118BF494292EA3A
:10029000030F3FD0A2F1010241FA03FC10EB0C0066
:1002A000C3F1200301FA03F100F0004302D54942F3
:1002B00060EB4000B0F5000F13D3B0F1807F06D3A0
:1002C00040084FEA310102F10102FE2A51D2B1F198
:1002D000004F40EBC25008BF20F0010040EA03008D
:1002E0007047490040EB0000013A28BFB0F5000F0D
:1002F000EDD2B0FA80FCACF1080CB2EB0C0200FAC3
:100300000CF0AABF00EBC25052421843BCBFD04011
:100310001843704792F0000F81F4000106BF80F48B
:1003200000000132013BB5E74FEA41037FEA226C4E
:1003300018BF7FEA236C21D092EA030F04D092F019
:10034000000F08BF0846704790EA010F1CBF00204D
:10035000704712F07F4F04D1400028BF40F00040AA
:10036000704712F100723CBF00F50000704700F0CA
:10037000004343F0FE4040F4000070477FEA2262F1
:1003800016BF08467FEA23630146420206BF5FEAC2
:10039000412390EA010F40F4800070474FF00003C2
:1003A00004E000BF10F0004348BF40425FEA000C89
:1003B00008BF704743F0964301464FF000001CE031
:1003C00050EA010208BF70474FF000030AE000BF87
:1003D00050EA010208BF704711F0004302D54042C5
:1003E00061EB41015FEA010C02BF84460146002037
:1003F00043F0B64308BFA3F18053A3F50003BCFA52
:100400008CF2083AA3EBC25310DB01FA02FC6344FE
:1004100000FA02FCC2F12002BCF1004F20FA02F205
:1004200043EB020008BF20F00100704702F12002F8
:1004300001FA02FCC2F1200250EA4C0021FA02F259
:1004400043EB020008BF20EADC7070474FF0FF0C5E
:100450001CEAD0521EBF1CEAD15392EA0C0F93EA59
:100460000C0F6FD01A4480EA010C400218BF5FEAFB
:1004700041211ED04FF0006343EA501043EA51116E
:10048000A0FB01310CF00040B1F5000F3EBF490068
:1004900041EAD3715B0040EA010062F17F02FD2A6C
:1004A0001DD8B3F1004F40EBC25008BF20F001004F
:1004B000704790F0000F0CF0004C08BF49024CEA66
:1004C000502040EA51207F3AC2BFD2F1FF0340EAF8
:1004D000C250704740F400004FF00003013A5DDC69
:1004E00012F1190FDCBF00F000407047C2F10002AA
:1004F000410021FA02F1C2F1200200FA02FC5FEA97
:10050000310040F1000053EA4C0308BF20EADC70E0
:10051000704792F0000F00F0004C02BF400010F452
:10052000000F013AF9D040EA0C0093F0000F01F0FF
:10053000004C02BF490011F4000F013BF9D041EA21
:100540000C018FE70CEAD15392EA0C0F18BF93EA23
:100550000C0F0AD030F0004C18BF31F0004CD8D14D
:1005600080EA010000F00040704790F0000F17BFD4
:1005700090F0004F084691F0000F91F0004F14D01A
:1005800092EA0C0F01D142020FD193EA0C0F03D172
:100590004B0218BF084608D180EA010000F0004075
:1005A00040F0FE4040F40000704740F0FE4040F450
:1005B000400070474FF0FF0C1CEAD0521EBF1CEAEF
:1005C000D15392EA0C0F93EA0C0F69D0A2EB03020D
:1005D00080EA010C49024FEA402037D04FF08053A7
:1005E00043EA111143EA10130CF000408B4238BF6C
:1005F0005B0042F17D024FF4000C8B4224BF5B1A7A
:1006000040EA0C00B3EB510F24BFA3EB510340EAC7
:100610005C00B3EB910F24BFA3EB910340EA9C0075
:10062000B3EBD10F24BFA3EBD10340EADC001B01E5
:1006300018BF5FEA1C1CE0D1FD2A3FF650AF8B4289
:1006400040EBC25008BF20F0010070470CF0004C96
:100650004CEA50207F32C2BFD2F1FF0340EAC250C1
:10066000704740F400004FF00003013A37E792F082
:10067000000F00F0004C02BF400010F4000F013AE0
:10068000F9D040EA0C0093F0000F01F0004C02BFDB
:10069000490011F4000F013BF9D041EA0C0195E744
:1006A0000CEAD15392EA0C0F08D142027FF47DAFDD
:1006B00093EA0C0F7FF470AF084676E793EA0C0FCD
:1006C00004D14B023FF44CAF08466EE730F0004CCB
:1006D00018BF31F0004CCAD130F000427FF45CAF5B
:1006E00031F000437FF43CAF5FE700BF4FEA4002C8
:1006F000B2F1FE4F0FD34FF09E03B3EB12620DD950
:100700004FEA002343F0004310F0004F23FA02F0B9
:1007100018BF404270474FF00000704712F1610F60
:1007200001D1420205D110F0004008BF6FF0004037
:1007300070474FF000007047034613F8012B002A62
:10074000FBD1181A0138704748B390B583B002AF97
:100750000C46844601F10B0323F00703ADEB030DB8
:1007600002AA10238DF80830002353709370A22141
:10077000D17005E0191D1CF80300505401339BB2E1
:10078000A342F7D3231D4FF0FF3100919BB2842188
:10079000044803F00DF8E0B20437BD4690BD0020D8
:1007A000704700BF8403002010B5094C00220821C7
:1007B000204602F0BCFCFA2008F0AEFC0122082121
:1007C000204602F0B4FC4FF4FA6008F0A5FC10BD1E
:1007D0000008014000B585B0002300930193029307
:1007E00003934FF4805300936946034802F078FB6B
:1007F00005B05DF804FB00BF0008014000B585B0FE
:10080000002300930193029303934FF480530093CA
:1008100001230193022303936946034802F060FB1E
:1008200005B05DF804FB00BF0008014008B54FF4B7
:100830008051024802F074FC08BD00BF000801406E
:1008400008B530B101224FF48051054802F06FFC29
:1008500008BD00224FF48051014802F068FCF7E720
:100860000008014030B583B005460C46FFF7DEFFB7
:1008700010B1002003B030BDFFF7C0FF0020FFF72C
:10088000DFFF4FF0FF330093A3B22A4685210648CD
:1008900003F04AF80120FFF7D3FFFFF79BFF052085
:1008A00008F03AFCE0B2E5E78403002008B5FFF762
:1008B00091FFFFF779FF012008BD0068C0B27047C3
:1008C00030B5039CD0F804C01FFA8CFE1CF4787F6E
:1008D0000FD025881888854201D070460AE0158817
:1008E0000888854201D0704604E02EF4787080B20A
:1008F00000E070461CF4F84F04D02588B3F800C01F
:10090000654504D024881C8013880B8030BDB2F864
:1009100000C00D88AC45F5D12EF4F84080B2F1E767
:1009200000B589B005AB104A07CA83E807000C215F
:100930001846FFF709FF102101A8FFF793FF68B1E0
:100940009DF80830A22B0CD19DF80A301BB900206D
:1009500009B05DF804FB4FF0FF30F9E74FF0FF30CE
:10096000F6E74FF0FF30F3E7E4A1000800B589B0E7
:1009700005AB104A07CA83E807000C211846FFF7A9
:10098000E3FE102101A8FFF76DFF68B19DF8083064
:10099000A22B0CD19DF80A301BB9002009B05DF8DC
:1009A00004FB4FF0FF30F9E74FF0FF30F6E74FF070
:1009B000FF30F3E7F0A1000870B586B006460D469B
:1009C00014463C4B4FF0000C83F800C018216846D9
:1009D000FFF748FF002869D09DF80330912B05D020
:1009E0009DF804301F2B54D006B070BD9DF8043024
:1009F0001E2BF5D19DF808309DF8092043EA02230B
:100A00009DF80A2043EA02439DF80B2043EA026363
:100A100033609DF80C209DF80D0042EA00239DF8FC
:100A20000E1043EA01439DF80FC043EA0C63736064
:100A300041EA0C21298042EA002222809DF80730F9
:100A400013F0020F06D09DF810209DF8111042EA15
:100A50000122B26013F0010FC6D0164B01221A70AA
:100A60009DF812309DF8132043EA0223B3819DF8CC
:100A700014309DF8152043EA0223F3819DF81630C7
:100A80009DF8172043EA02233382ADE7642008F083
:100A900043FBFFF745FF0028F8D102E0642008F08F
:100AA0003BFBFFF763FF0028F8D19DE7052008F026
:100AB00033FB99E77C01002082B0019002E0019BAA
:100AC000013B0193019B002BF9D102B0704700005C
:100AD00070B588B0244B9A6942F020029A619A69F5
:100AE00002F020020092009A9A6942F040029A6154
:100AF0009A6902F040020192019A9A6942F08002DA
:100B00009A619A6902F080020292029A5A6942F44A
:100B100080725A615B6903F480730393039B012322
:100B200005930693032307934FF4805304930F4DCB
:100B300004A9284602F0D4F9022604960C4C04A914
:100B4000204602F0CDF905964CF6B373049304A940
:100B5000284602F0C5F94FF68073049304A9204695
:100B600002F0BEF908B070BD001002400014014050
:100B70000018014038B5154C4FF02043236003F5B1
:100B800082736360124D00232B606B600822AA60A1
:100B9000EB602B616B614FF08051A961A360E36052
:100BA000226110226261A361E36163624FF48052AB
:100BB000A262E36223636363A363FFF789FF2A46AC
:100BC0002946204604F0D1F938BD00BF800100203D
:100BD000C80100204FF0C04318807047014B1880B7
:100BE000704700BF0000026020B1054B4FF08052FB
:100BF0001A617047024B4FF480521A61704700BF70
:100C0000001401404FF0C04304221A8003F5003362
:100C10001A881A88188880B2000280B21B889BB29A
:100C2000184348F25253984213D04FF0C043D32296
:100C30001A8003F500331A881A88188880B20002D7
:100C400080B21B889BB2184349F24133984200D0CE
:100C5000002070472DE9F84FFFF7D4FF664B18804E
:100C600049F24133984206D048F25253984200F07C
:100C7000C980BDE8F88F4FF0C044CF2323805F4B7D
:100C800000221A808121198030261E80ED202080CC
:100C90006420188003271F80122018801980E82103
:100CA0002180852119804FF01009A3F80090782148
:100CB0001980CB2121804FF03908A3F800802C2126
:100CC00019801A803421198006201880F72121808C
:100CD00020211980EA2121801A801A80B1212180E7
:100CE0001A804FF01B0AA3F800A0B62121800A2128
:100CF0001980A2211980C025258035251D80C12598
:100D000025804FF0110CA3F800C0C525258045258E
:100D10001D801D80C72525801980F22121801A8021
:100D2000262525804FF0010EA3F800E0E021218068
:100D30000F2119801D8024251D800B251D800E2567
:100D40001D8009251D804FF0540BA3F800B04FF013
:100D5000A80BA3F800B04FF0460BA3F800B04FF07B
:100D60000C0BA3F800B04FF0170BA3F800B01D80D8
:100D7000198007251D801A804FF0E10BA4F800B000
:100D80001A804FF0190BA3F800B0A3F800A04FF0A1
:100D9000040AA3F800A0A3F800901D802A251D8056
:100DA0004FF04709A3F80090A3F800801F80188037
:100DB00018801E8038201880198036212180C82193
:100DC000198025801A801A801A80EF2119802B2122
:100DD00021801A801A80A3F800E03F221A803A226C
:100DE000228055221A80A4F800C00548FFF764FE4F
:100DF000292323803DE700BFE401002000000260BA
:100E0000FCBF02004FF0C044CF232380504B002290
:100E10001A80C1261E804FF0300EA3F800E0ED21AD
:100E200021806421198003211980122119808120D9
:100E30001880E820208085201880102018807820D5
:100E40001880CB202080392018802C251D801A8006
:100E50003420188002201880F727278020271F8041
:100E6000EA2727801A801A80C027278021271F8021
:100E7000268011271F80C52626804FF02D0CA3F851
:100E800000C0B726268077261E80362626801A8048
:100E90003A26268055261E80B12626801A804FF0DD
:100EA0001709A3F80090B62626800A261E80A226DF
:100EB0001E80F626268001261E80A3F800E04FF053
:100EC000F20EA4F800E01A804FF0260EA4F800E01D
:100ED0001E80E02626804FF0D008A3F800801A80FC
:100EE00018804FF0070EA3F800E00B261E801A268C
:100EF0001E8031261E8054261E8040261E802926F4
:100F00001E80198019801980A3F80090E1212180AA
:100F1000A3F800801A801880A3F800E005221A8048
:100F200025221A80A3F800C044221A8045221A8084
:100F30001C221A8018211980162119801A801D225E
:100F40001A8027800348FFF7B7FD2680258090E6AA
:100F500000000260FCBF020010B5074C4FF40033E4
:100F6000236140F6FF20FFF7A7FD0223236140F62F
:100F7000FF20FFF7A1FD10BD00180140072850D841
:100F800010B4284B187010F0010F38D1264BF02206
:100F90001A80264B4FF4A0721A804FF0C0433622BD
:100FA0001A80234B1B8849F2413293422FD048F2DA
:100FB0005252934231D04FF0C0412A230B801D4B37
:100FC000002018801880184C2288013AC2F30722AA
:100FD0001A802288013AD2B21A802B220A80188005
:100FE000188012480288013AC2F307221A80028848
:100FF000013AD2B21A802C230B8010BC70470A4BE6
:101000004FF4A0721A80094BF0221A80C5E7400104
:1010100040F00800074B1880CDE74001054B1880D1
:10102000C9E77047080000200A0000200C000020DB
:10103000E40100200000026008B5FFF749FDFFF75A
:1010400099FD0120FFF7D0FDFFF786FFFFF702FEB5
:10105000024B1878FFF792FF08BD00BF0800002080
:1010600010B54FF0C04C2A24ACF800404FEA102EC7
:10107000104CA4F800E05FFA80FEA4F800E01044F1
:10108000421EC2F30F22228080B20138C0B22080FB
:101090002B22ACF800200A0A2280CAB2228019440E
:1010A0004B1EC3F30F23238089B20139C9B22180BB
:1010B00010BD00BF0000026008B501231A46FFF70B
:1010C000CFFF08BD38B514461D46FFF7C9FF05FB25
:1010D00004F1074B18884FF0C0432C221A800023DC
:1010E00002E0044A108001339942FAD838BD00BFAB
:1010F000000000200000026070B5A2F12004A4B23C
:10110000184B1D68AA88EB8803FB02F6002E0CDB47
:10111000C6F3C7062D6806FB04F4FFF7A1FF4FF0E6
:10112000C0432C221A80002016E00736F0E70E4A52
:1011300011880E4A11800133DBB2072B0AD82A1915
:10114000115C80221A411142F1D0094A1188074AE4
:101150001180F0E70130C0B2B04201D20023ECE7C9
:1011600070BD00BF040000200000002000000260ED
:101170007E01002070B504460D46164611E0C38876
:101180002B44104909888B4201DD00252C46294655
:101190002046FFF7B1FF01360B4B1B6898880444CB
:1011A000A4B2327862B1084B186883882344074997
:1011B00009888B42E3DDC1880D44ADB20024DEE72F
:1011C00070BD00BF0C000020040000200A000020B9
:1011D000EF2812D810B51446B1F5A07F00D310BD8A
:1011E000FFF76AFF4FF0C0432C221A80220A03F552
:1011F00000331A80E2B21A80F1E7704782B00190A2
:10120000002106E00C231A46013BDBB2002AFAD18A
:101210000131019B8B42F5D802B0704770B506468C
:10122000144B4FF480221A614FF480321A6100246B
:1012300011E0104B4FF480221A610520FFF7DEFF0A
:101240000C4D01232B610520FFF7D8FF4FF48033AD
:101250002B610134E4B2072C0AD8C4F1070346FA23
:1012600003F313F0010FE4D0024B04221A61E4E708
:1012700070BD00BF0018014070B50F4B4FF48022C5
:101280001A6101221A6100252C4610E00A4E4FF423
:10129000803333610821304601F042FFC4F10B0373
:1012A0009840284385B2012333611C44E4B20B2CDF
:1012B000ECD9284670BD00BF0018014008B5FFF703
:1012C000ADFFFFF7D9FF08BD70B505460C4690206D
:1012D000FFF7F4FF06B20120FFF790FFD020FFF7E1
:1012E000EDFF2E80208070BDF0B58DB00546282220
:1012F000002101A808F01CFB00240BA90DF12E0011
:10130000FFF7E2FF0CAB03EB4403BDF82E2023F8FC
:101310002C2C04F10A030CAA02EB4303BDF82C2089
:1013200023F82C2C0134E4B21021404801F0F8FEDF
:1013300008B9092CE1D910213C4801F0F1FE10B1A7
:101340003B4B00221A700A2C02D000200DB0F0BDD9
:10135000BDF904E0BDF918C074467146012302E0EE
:1013600011460133DBB2092B0AD80CAA02EB430267
:1013700032F92C2C8A42F3DBA242F2DD1446F0E76C
:1013800060466646012302E016460133DBB2092BB4
:101390000CD803F10A020CAF07EB420232F92C2CF5
:1013A000B242F1DB8242F0DD1046EEE7BDF90630D5
:1013B0007344BDF908E07344BDF90A201344BDF934
:1013C0000C201344BDF90E201344BDF91020134422
:1013D000BDF912201344BDF914201344BDF91620A1
:1013E0001344591A0C1BE4102C80BDF91A306344C5
:1013F000BDF91CC06344BDF91E201344BDF9202073
:101400001344BDF922201344BDF924201344BDF92F
:1014100026201344BDF928201344BDF92A20134483
:101420009B1B1B1ADB106B8001208FE7001801400B
:101430001D030020F0B587B0224B9A6942F04002AC
:101440009A619A6902F040020092009A9A6942F009
:1014500020029A619B6903F020030193019B012400
:101460000294032605960394174D02A9284601F01D
:1014700037FD0423029302A9284601F031FD4FF401
:101480000053029305960394104F02A9384601F0C9
:1014900027FD0823029305960026039604940DEB7E
:1014A0000301284601F01CFD4FF000533B6110235F
:1014B00002930396049402A9284601F011FD07B097
:1014C000F0BD00BF001002400018014000140140B0
:1014D0002DE9F04F83B005460C466846FFF704FF40
:1014E000002848D0DFF8949099F8003003EB4303CC
:1014F00004EBC30A54F83360BDF900804046FEF7A0
:1015000051FF3146FEF7A2FF0646DAF804B0BDF9F6
:1015100002703846FEF746FF5946FEF797FF014630
:101520003046FEF78BFEDAF80810FEF787FEFFF76D
:10153000DDF8288099F8003003EB430304EBC30483
:10154000E6684046FEF72EFF3146FEF77FFF06466F
:10155000D4F810803846FEF725FF4146FEF776FFA7
:1015600001463046FEF76AFE6169FEF767FEFFF747
:10157000BDF86880012003B0BDE8F08F08000020AE
:1015800010B5224B1C78012C15D0022C30D024B180
:1015900000241E4B1C70204610BD10211C4801F079
:1015A000BFFD20B9194A012111700446F3E7174B1A
:1015B00000221A70EFE71021154801F0B1FD88B93B
:1015C000144A136801331360022B06D91346002214
:1015D0001A600E4B02221A70DDE70C4B01221A70C2
:1015E0000446D8E700240B4B1C60084B1C70D2E764
:1015F0001021074801F094FD20B9044B02221A7013
:101600000124C8E70024014B1C70C4E71C03002020
:1016100000180140E801002008B5B0F90430B3F12A
:10162000FF3F04D1B0F90620B2F1FF3F05D0B0F979
:10163000061089B298B200F05DFE08BD70B5044690
:101640003649FFF745FF364E364DB4F90020314696
:10165000284608F075F92A4600210846FFF78AFD5A
:10166000B4F902203146284608F06AF92A461421C6
:101670000020FFF77FFDB4F90030142B16DD812B1D
:1016800014DCB4F90220322A10DD772A0EDC0123A3
:10169000254A1370254A1370234B1B78012B13D056
:1016A000022B26D0204B00221A7021E0642BF3DDA0
:1016B000DB2BF1DCB4F90230822BEDDDC72BEBDC48
:1016C000194B02221A70E7E7194A3C210020FFF764
:1016D00051FD184D284600F01AFD124C2A78104989
:1016E000204608F02DF92246C8210020FFF742FDD0
:1016F00070BD114A50210020FFF73CFD0F4D2846D8
:1017000000F005FD074C2A780549204608F018F935
:101710002246DC210020FFF72DFDE9E7180000201C
:10172000FCA10008F0010020E4050020EC010020ED
:1017300000A20008DC05002004A20008DD0500204E
:1017400070B504464C49FFF7C3FE4C4E4C4DB4F9FE
:1017500000203146284608F0F3F82A4600210846C2
:10176000FFF708FDB4F902203146284608F0E8F8F2
:101770002A4614210020FFF7FDFCB4F90030142B99
:1017800018DDC72B16DCB4F90220322A12DD592AE3
:1017900010DC01233B4A13703B4A1370394B1B7812
:1017A000022B3ED0032B51D0012B25D0354B0022EC
:1017B0001A7035E0142B0DDDC72B0BDCB4F90220B9
:1017C000782A07DDB32A05DC02232E4A13702E4A3D
:1017D0001370E3E7142BE1DDC72BDFDCB4F9023033
:1017E000C82BDBDDB3F58C7FD8DA264B03221A70C9
:1017F000264B00221A70D1E7254A3C210020FFF732
:10180000B9FC244D284600F082FC1D4C2A781B4967
:10181000204608F095F82246C8210020FFF7AAFCD0
:1018200070BD1D4A50210020FFF7A4FC1B4D284627
:1018300000F06DFC124C2A781049204608F080F820
:101840002246DC210020FFF795FCE9E7144A6421D9
:101850000020FFF78FFC114800F059FC084C114B99
:101860001A780649204608F06BF82246F02100203D
:10187000FFF780FCD4E700BF18000020FCA100089F
:10188000F0010020E4050020E4000020EC0100202D
:1018900000A20008DC05002004A20008DD050020ED
:1018A00008A20008DE05002008B518B90846FFF7B1
:1018B000C5FE08BD0846FFF743FFFAE710B504462A
:1018C000B0F90430B3F1FF3F04D1B0F90630B3F101
:1018D000FF3F0CD02146064B1878FFF7E5FFB4F91F
:1018E0000000B4F9021089B280B200F0AFFC10BD64
:1018F000EC01002010B5FFF743FE012812D0154B74
:1019000020221A6101221A614FF400321A61124C2E
:101910002046FFF781FE4FF6FF7323806380A3808C
:10192000E38010BD0B4B20221A614FF480321A6104
:1019300002221A61084C09492046FFF7C9FD2046DA
:10194000FFF7BCFFB4F90030A380B4F90230E380A4
:10195000E7E700BF000C0140100000201800002045
:1019600000B583B00A4B5A6942F002025A615B69C2
:1019700003F002030193019B002205213B2000F0AC
:10198000DDFF3B2001F012F803B05DF804FB00BF5F
:101990000010024000B583B016E0364A0021084628
:1019A000FFF7E8FB01A800F043FF334800F0FCFB21
:1019B000BDF80630102B49D0B3F5007F4CD0012B79
:1019C00050D0012006F0D6F92C4B1B78022BF8D111
:1019D0004FF0FF3201A92A4B186806F05CFF01287E
:1019E000EFD19DF80430023B032BE1D801A252F85D
:1019F00023F000BF9B190008051A00081D1A0008F3
:101A0000351A00081F4A00210846FFF7B3FB01A85A
:101A100000F00EFF1C4800F0C7FBC9E71B4A00217D
:101A20000846FFF7A7FB01A800F002FF184800F0E6
:101A3000BBFBBDE7174A00210846FFF79BFB01A847
:101A400000F0F6FE144800F0AFFBB1E7134A142192
:101A50000020FFF78FFBB4E7114A14210020FFF7A5
:101A600089FBAEE71023082214210020FFF72AFB90
:101A7000A7E700BFFCA7000800A80008E4000020BA
:101A8000340300200CA8000810A800081CA80008B7
:101A900020A8000828A800082CA8000838A80008DA
:101AA0003CA8000800B58BB0FEF700FF0EE0354AF9
:101AB00000210846FFF75EFB334800F0B9FE002323
:101AC0008DF808300593012006F054F92F4B1B7850
:101AD000013BDBB2012BF6D803AC224604A905A8D2
:101AE000FEF76AFF00940DF10E0304AA0DF1120136
:101AF00005A8FEF7E5FEADF80A0005A8FEF7DDFE35
:101B00008DF8080000234FF0FF3202A9204800683A
:101B100006F097FD00238DF80830ADF80A306420F8
:101B200007F0FAFA194B1B78022BCCD19DF808303C
:101B3000023B032BC3D801A252F823F0AF1A0008CE
:101B40004D1B00085F1B0008711B0008114A002193
:101B50000846FFF70FFB104800F06AFEAFE70F4A98
:101B600000210846FFF706FB0D4800F061FEA6E7DE
:101B70000C4A00210846FFF7FDFA0B4800F058FE1A
:101B80009DE700BFFCA7000804A20008E4000020B5
:101B9000340300200CA8000800A200081CA80008BC
:101BA00008A2000828A8000840A8000808B50FE00F
:101BB00001224FF48071094801F0B9FA00F020FECB
:101BC000074AA0217820FFF7D5FA012006F0D2F8C5
:101BD000044B1B78012BEBD0F7E700BF000C014052
:101BE00044A80008DD05002008B5FFF783FE232088
:101BF00006F0C0F8F9E7000008B507E0074800F074
:101C0000D3FA00F0B1FA012006F0B4F8044B1B78C7
:101C1000002BF3D000F0B8FAF5E700BF20A80008C9
:101C2000EC01002008B5FFF707FAFFF703FC04F00A
:101C300091F900F073FD00220421012006F0DAFC86
:101C4000124B1860124A0021124806F01DF8124B80
:101C50001860124A0021124806F016F8114B18605D
:101C6000114A0021114806F00FF8114B1860114A73
:101C70000021114806F008F8104B1860104A0021A6
:101C8000104806F001F8104B186008BD340300201E
:101C900090A80008951900082003002020A900083A
:101CA000A51A000830030020B4A80008AD1B0008E6
:101CB00024030020D8A80008E91B000828030020FE
:101CC000FCA80008F91B00082C03002030B587B0E1
:101CD00000230293039304930593134B1B680BB1EA
:101CE00007B030BD104B01221A60104B5A6942F404
:101CF00080725A615B6903F480730193019B4FF614
:101D000080730293022503950324059402A90848D1
:101D100001F0E6F84CF6B37302930395059402A91B
:101D2000044801F0DDF8DBE7380300200010024032
:101D3000001801400014014010B588B00022019243
:101D400002920392049205920692079216484FF06F
:101D50002043036003F5827343608260C2600261C6
:101D6000102141618261C261026242624FF480537C
:101D70008362C2620263426382630F230193029310
:101D8000FF240394049305911123069301A903F002
:101D9000ECF830B9054AD36943F48063D36108B0E5
:101DA00010BD00F062F9F5E73C030020000001409F
:101DB00008B5FFF78BFF08BD2DE9F0478AB0002476
:101DC0000694079408940994454B9A6942F00402DA
:101DD0009A619A6902F004020192019A9A6942F0AA
:101DE00008029A619A6902F008020292029A9A69BC
:101DF00042F040029A619A6902F040020392039A0B
:101E00009A6942F020029A619A6902F020020492D3
:101E1000049A9A6942F010029A619B6903F01003D8
:101E20000593059BDFF8BC8001222321404601F089
:101E30007EF9DFF8B4A022464FF48051504601F0FD
:101E400076F92A4F22464FF4C051384601F06FF917
:101E500022464FF48071404601F069F9DFF8909016
:101E600022460221484601F062F901260696214BDE
:101E70000793089406A9384601F032F80823069320
:101E800007940225089506A9384601F029F840F282
:101E90002313069307960894099506A9404601F076
:101EA0001FF84FF48053069307960894099506A9E6
:101EB000504601F015F84FF4C05306930796089466
:101EC000099506A9384601F00BF80695079608947F
:101ED000099506A9484601F003F80AB0BDE8F08765
:101EE00000100240000C01400014014000080140B5
:101EF000001801400000111008B50B480B4B03609F
:101F00000B4B436000238360C3604FF48042026147
:101F100043618361C361036201F06CFB00B908BDDA
:101F200000F0A3F8FBE700BF840300200058004046
:101F3000A086010010B586B000230293039304939A
:101F400005930268114B9A4201D006B010BD104CA7
:101F5000A36943F00803A361A36903F00803009396
:101F6000009B4FF4406302931223039303230593D2
:101F700002A9084800F0B4FFE36943F48003E36179
:101F8000E36903F480030193019BDEE700580040FE
:101F900000100240000C01402DE9F04F83B0019089
:101FA0008A4693469946048812F0070F07D0D30853
:101FB00001330093BAF800704FF0000834E0D30802
:101FC0000093F7E74FF6FF7239462046FFF700F916
:101FD0006D00EDB20134A4B20136F6B2072E21D85D
:101FE00015F0800FEED0002239462046FFF7F0F8BA
:101FF000EEE74FF6FF7239462046FFF7E9F86D002D
:10200000EDB20134A4B20136F6B2072E0AD815F0AB
:10201000800FEED0002239462046FFF7D9F8EEE7D0
:102020000026F2E709F10109BAF80030009A1344DA
:10203000BB4213DB99F8005008F101081FFA88F839
:10204000C3450BD3992CEBD90137BFB2DF2F02D98F
:10205000A027AAF800705A240026BFE7019B1C8025
:10206000AAF8007003B0BDE8F08F72B6FEE700B5C5
:1020700091B02822002106A807F05AFC0023019302
:102080000293039304930593012206924FF4803345
:1020900007930A9202220D920E934FF4E0130F93CE
:1020A00006A801F003FE80B90F23019302210291DB
:1020B000002303934FF480620492059301A802F079
:1020C00027F820B911B05DF804FBFFF7CEFFFFF74A
:1020D000CCFF08B500F0E8FBFFF7C9FFFFF76CFE87
:1020E000FFF73EFCFFF728FE00F038F903F032FF5F
:1020F00000F0B0F900F012FBFFF7FEFE00F0B6FAB8
:1021000005F07AFDFFF78EFD05F098FDFEE70378F8
:10211000B3FA83F35B09037070472DE9F8439046E7
:102120009946089E00273D4618E001231A46394685
:102130002046FEF795FF2C20FEF74CFD06EB4503ED
:102140005B7816F8150040EA0320FEF747FD0135DD
:102150000134A4B24445E8D30137BFB24F4501D2A0
:102160000024F7E7BDE8F88300B583B0054B009382
:102170004FF4A073F02200210846FFF7CEFF03B012
:102180005DF804FB4801030800B583B0054B0093DC
:102190004FF4A073F02200210846FFF7BEFF03B002
:1021A0005DF804FB48A90008F8B5044601221E4961
:1021B0001E4805F087F8012221461D4805F0B0F8B9
:1021C00030B3F8BD1B4C1A4F2168384605F01FFB91
:1021D000194D1A4E2B464FF400723146384605F021
:1021E0007DF933462A8816491648FFF7D5FE23683D
:1021F0002A6813442360144A137801331370124B76
:102200001B78072BDED90C4B1B68B3F5007F03D37B
:102210000D4B00221A70F2E7054805F0E9FA054B6C
:1022200000221A60CDE700BF44A900082009002061
:1022300054190020E0050020D8030020DC03002012
:10224000DA000020D8000020E5050020F8B5064699
:102250000F46002409E003EB4302254901EBC202CB
:10226000127B012A34D00134E4B20F2C3ED823462D
:1022700004EB44021E4D05EBC2029288B242EAD33F
:1022800004EB440205EBC202D288BA42E3D304EB6A
:10229000440205EBC2025288BA42DCD804EB440285
:1022A00035F83220B242D6D804EB440205EBC20224
:1022B000127B002AD7D104EB440205EBC2020120B5
:1022C0001073126904EB440305EBC3009047CAE79F
:1022D000084603EB430201EBC202002111731269AD
:1022E00003EB430300EBC3009047BCE7F8BD00BF1E
:1022F000E8050020F8B5002301E00133DBB20F2B25
:1023000028D803EB4302144C04EBC20292888242A9
:10231000F3D903EB430234F832208242EDD203EBCF
:10232000430204EBC202D2888A42E6D903EB43029D
:1023300004EBC20252888A42DFD2264603EB4304F2
:1023400006EBC4040023237323692046984763697E
:1023500020469847F8BD00BFE8050020054B064A17
:102360001A6000225A609A60DA601A615A61242267
:102370009A617047AC0700200080014070B588B0BA
:102380000023049305930693079302682C4B9A420B
:1023900001D008B070BD044603F510435A6942F4F9
:1023A00080625A615A6902F480620192019A9A69C4
:1023B00042F010029A619A6902F010020292029AA7
:1023C0009A6942F020029A619B6903F0200303930B
:1023D000039B4FF488530493022605960325079523
:1023E00004A9184800F07CFD042304930596079582
:1023F00004A9154800F074FD1448154B0360002330
:10240000436083608022C2604FF4007202614FF427
:102410000062426120228261C36100F0E9FA60B982
:102420000A4B23645C62E36300220521312000F043
:1024300085FA312000F0BAFAABE7FFF716FEEFE7B6
:102440000080014000100140001401406807002096
:102450004404024008B50D480D4B03604FF48273ED
:10246000436000238360C360036143614FF40072E3
:102470008261C3610362436283620A23C36202F022
:1024800019FD00B908BDFFF7F0FDFBE7300800209B
:102490000038004010B586B00023029303930493E4
:1024A00005930268174B9A4201D006B010BD03F5A0
:1024B000EC33DA6942F48042DA61DA6902F480428C
:1024C0000092009A9A6942F008029A619B6903F0AF
:1024D00008030193019B4FF42043029302230393CB
:1024E00003230593084C02A9204600F0F9FC4FF4A1
:1024F0008043029300230393049302A9204600F033
:10250000EFFCD2E700380040000C014000B583B07A
:10251000114B9A6942F001029A619A6902F0010234
:102520000092009ADA6942F08052DA61DB6903F0C6
:1025300080530193019B00220F216FF0010000F0F6
:10254000FDF9064A536823F0E06343F000735360DB
:1025500003B05DF804FB00BF001002400000014022
:10256000FEE7FEE7FEE7FEE7FEE7704708B500F08E
:10257000ADF906F00FFF012800D108BD05F032FDCE
:10258000FBE7000008B5024802F0AEFB08BD00BF43
:10259000AC07002008B5024800F02CFB08BD00BFC6
:1025A0006807002010B503460C4A0D490D48006825
:1025B00040B10C4800680344521A934206D8094AB5
:1025C000136010BD0748084C0460F2E707F078F983
:1025D0000C2303604FF0FF30F3E700BF0000012041
:1025E00000040000880800201085002070470000CB
:1025F0000268094B9A4200D0704782B003F503335A
:10260000DA6942F00202DA61DB6903F00203019346
:10261000019B02B0704700BF0004004000B587B0C6
:102620000023029303930493059302680D4B9A428F
:1026300002D007B05DF804FB03F503339A6942F05A
:1026400004029A619B6903F004030193019B4023F8
:10265000029302230393059302A9034800F040FC70
:10266000E7E700BF000400400008014000B58FB05C
:1026700000230A930B930C930D93089309930193F2
:102680000293039304930593069307932148224AE8
:1026900002604360836041F29312C2600361836110
:1026A00002F0A4FD30BB4FF480530A930AA91948E5
:1026B00002F0A6FE08BB174802F0C4FD00BB0023D1
:1026C0000893099308A9134802F01AFFD8B96023A8
:1026D000019340F6CA03029300220392059201A9D6
:1026E0000C4802F013FE88B90A48FFF797FF0FB0B5
:1026F0005DF804FBFFF7B9FCD5E7FFF7B6FCDAE7B6
:10270000FFF7B3FCDBE7FFF7B0FCE0E7FFF7ADFC5A
:10271000EAE700BF8C0800200004004008B50A4822
:102720000A4B03604FF4E133436000238360C360CE
:1027300003610C2242618361C36102F0ADFF00B905
:1027400008BDFFF792FCFBE7D408002000380140E9
:1027500010B586B000230293039304930593026897
:10276000174B9A4201D006B010BD03F558439A6941
:1027700042F480429A619A6902F480420092009A7F
:102780009A6942F004029A619B6903F00403019381
:10279000019B4FF4007302930223039303230593D9
:1027A000084C02A9204600F09BFB4FF48063029383
:1027B00000230393049302A9204600F091FBD2E783
:1027C000003801400008014038B505460C46FDF7C9
:1027D000B3FF4FF47A7382B22946074802F08CFFA8
:1027E0004FF47A7000FB04F40448A0FB0430800925
:1027F00006F092FC38BD00BFD4080020D34D621013
:1028000008B54FF4FA710748FFF7DEFF4FF4FA718D
:102810000548FFF7D9FF4FF4FA710448FFF7D4FFDA
:1028200008BD00BF6059050870590508885905089A
:1028300010B504464FF4FA710648FFF7C5FF6FF074
:102840007F4301222146044802F056FF642006F02F
:1028500063FC10BD98590508D408002010B5044643
:102860000E4B18784FF47A73B3FBF0F30C4A1068F0
:10287000B0FBF3F000F0A8F868B90F2C01D90120E3
:102880000AE0002221464FF0FF3000F057F8054BD8
:102890001C60002000E0012010BD00BFEC00002003
:1028A000E8000020F000002008B5074A136843F054
:1028B00010031360032000F02FF80F20FFF7CEFF66
:1028C000FFF724FE002008BD00200240034A1168E3
:1028D000034B1B780B441360704700BF1C0900209A
:1028E000EC000020014B1868704700BF1C09002055
:1028F00038B50446FFF7F6FF0546B4F1FF3F02D0B6
:10290000044B1B781C44FFF7EDFF401BA042FAD399
:1029100038BD00BFEC000020074AD36823F4E06311
:102920001B041B0C000200F4E060034343F0BF6390
:1029300043F40033D360704700ED00E000B5194B5D
:10294000DB68C3F30223C3F1070CBCF1040F28BFFB
:102950004FF0040C03F1040EBEF1060F18D9033B2F
:102960004FF0FF3E0EFA0CFC21EA0C0199400EFAE2
:1029700003F322EA0303194300280BDB0901C9B260
:1029800000F1604000F5614080F800135DF804FB41
:102990000023E5E700F00F000901C9B2024B19540A
:1029A000F4E700BF00ED00E014ED00E0002807DBD5
:1029B00000F01F02400901239340024A42F82030F0
:1029C000704700BF00E100E00138B0F1807F0BD21A
:1029D0004FF0E0235861054AF02182F823100020CF
:1029E000986107221A6170470120704700ED00E0EE
:1029F00000283AD010B4024600681D4B984229D8EE
:102A00001C4B03441C49A1FB03131B099B001364CB
:102A10001A4BD363022382F82130016821F47F51DD
:102A200021F03001536894682343D4682343146928
:102A300023435469234394692343D46923430B43B9
:102A4000036000209063012382F8213082F8200087
:102A500010BC70470A4B03440749A1FB03131B0931
:102A60009B001364074BD363D4E70120704700BF7A
:102A700007040240F8FFFDBFCDCCCCCC00000240E3
:102A8000F8FBFDBF0004024008B590F82130DBB22E
:102A9000022B03D004238363012008BD026813685E
:102AA00023F00E0313600268136823F00103136020
:102AB00003684C4A93424ED9783A934224D0143258
:102AC000934230D0143293422FD0143293422FD0FD
:102AD000143293422FD0143293422FD014329342A7
:102AE0002FD002F5627293422ED0143293422DD031
:102AF000143293422CD01432934202D04FF48032DD
:102B000003E04FF4805200E00122374B5A6001236A
:102B100080F82130002380F82030436B002B5ED0FA
:102B200098470020B9E71022EFE74FF48072ECE7F6
:102B30004FF48052E9E74FF48032E6E74FF4801219
:102B4000E3E74FF08072E0E70122DEE71022DCE7E6
:102B50004FF48072D9E7254A934224D0143293422D
:102B600025D01432934224D01432934224D014320C
:102B7000934224D01432934224D01432934224D06E
:102B800002F56272934223D01432934222D014325F
:102B9000934221D01432934202D04FF4803203E0AA
:102BA0004FF4805200E00122114B5A60AFE710222F
:102BB000FAE74FF48072F7E74FF48052F4E74FF4EE
:102BC0008032F1E74FF48012EEE74FF08072EBE7CE
:102BD0000122E9E71022E7E74FF48072E4E70020E2
:102BE0005BE700BF80000240000402400800024092
:102BF0000000024038B5C36B1A6804682568016C90
:102C000004238B40134200F09B8015F0040F00F06A
:102C10009780236813F0200F03D1236823F0040367
:102C2000236003689A4A934246D9783A934224D063
:102C30001432934228D01432934227D01432934254
:102C400027D01432934227D01432934227D0143223
:102C5000934227D002F56272934226D014329342F7
:102C600025D01432934224D01432934202D04FF430
:102C7000802203E04FF4804200E00422854B5A603A
:102C8000C36A03B1984738BD4022F7E74FF480622A
:102C9000F4E74FF48042F1E74FF48022EEE74FF47F
:102CA0008002EBE74FF08062E8E70422E6E740228B
:102CB000E4E74FF48062E1E7774A934224D014328C
:102CC000934225D01432934224D01432934224D01C
:102CD0001432934224D01432934224D014329342BB
:102CE00024D002F56272934223D01432934222D050
:102CF0001432934221D01432934202D04FF48022F6
:102D000003E04FF4804200E00422644B5A60B7E7CE
:102D10004022FAE74FF48062F7E74FF48042F4E78D
:102D20004FF48022F1E74FF48002EEE74FF080622B
:102D3000EBE70422E9E74022E7E74FF48062E4E7AB
:102D400002238B40134200F0AB8015F0020F00F01D
:102D5000A780236813F0200F06D1236823F00A030D
:102D60002360012380F821300368494A93424BD9FC
:102D7000783A934224D0143293422DD014329342A5
:102D80002CD0143293422CD0143293422CD01432D3
:102D900093422CD0143293422CD002F562729342AB
:102DA0002BD0143293422AD01432934229D01432B9
:102DB000934202D04FF4003203E04FF4005200E09F
:102DC0000222344B5A60002380F82030836A002BA3
:102DD0003FF459AF984756E72022F2E74FF40072CC
:102DE000EFE74FF40052ECE74FF40032E9E74FF41D
:102DF0000012E6E74FF00072E3E70222E1E720224B
:102E0000DFE74FF40072DCE7234A934224D0143208
:102E1000934225D01432934224D01432934224D0CA
:102E20001432934224D01432934224D01432934269
:102E300024D002F56272934223D01432934222D0FE
:102E40001432934221D01432934202D04FF4003214
:102E500003E04FF4005200E00222104B5A60B2E748
:102E60002022FAE74FF40072F7E74FF40052F4E73C
:102E70004FF40032F1E74FF40012EEE74FF000722A
:102E8000EBE70222E9E72022E7E74FF40072E4E7EC
:102E9000800002400004024008000240000002409E
:102EA000082303FA01F111423FF4EDAE15F0080FCB
:102EB0003FF4E9AE236823F00E032360026CC16B7C
:102EC000012303FA02F24A60836380F82130002371
:102ED00080F82030036B002B3FF4D5AE9847D2E644
:102EE00070B582B00024A446B0E0874DAA4210D04D
:102EF00007D9864DAA420CD005F58035AA4208D0E4
:102F000013E0A5F58015AA4203D005F57025AA4265
:102F100007D18A68002A62D0012A5BD04361082465
:102F200003E0A5F58015AA42F3D0BEF1FF0F58D8F3
:102F30000646BEF1FF0F56D84FEA8C0233680F25C4
:102F4000954023EA050304FA02F2134333604B6809
:102F500013F0805F78D06E4B9A6942F001029A615B
:102F60009B6903F001030193019B4FEA9C02951CAE
:102F7000684B53F825600CF003039D000F23AB4012
:102F800026EA0306644B984233D003F580639842E7
:102F900000F0988003F58063984200F0958003F577
:102FA0008063984200F0928003F58063984200F0BD
:102FB0008F8003F58063984219D006231AE0CC680D
:102FC000B3E7CC680434B0E7CC680834ADE7CC682C
:102FD0000C34AAE703610824A7E70024A5E704242A
:102FE000A3E7061DA5E7ACF108029200A6E70523BA
:102FF00000E00023AB4033430232464D45F8223017
:103000004B6813F4801F65D0444A936843EA0E036B
:1030100093604B6813F4001F62D0404AD36843EAC0
:103020000E03D3604B6813F4003F5FD03B4A5368F4
:1030300043EA0E0353604B6813F4803F5CD0374A79
:10304000136843EA0E0313600CF1010C0A6832FAAC
:103050000CF357D0012303FA0CF302EA030E33EA10
:103060000202F1D14A68122A3FF63FAF122A3FF618
:103070005CAF01A555F822F0132F0008BF2F000800
:10308000C92F0008DB2F00082B2F00082B2F00086A
:103090002B2F00082B2F00082B2F00082B2F0008A8
:1030A0002B2F00082B2F00082B2F00082B2F000898
:1030B0002B2F00082B2F00082B2F0008C32F0008F0
:1030C000CF2F0008012395E7022393E7032391E71D
:1030D00004238FE7114A936823EA0E03936098E76D
:1030E0000E4AD36823EA0E03D3609BE70B4A53686A
:1030F00023EA0E0353609EE7084A136823EA0E038F
:103100001360A1E702B070BD000022100000311072
:10311000001002400000014000080140000401408E
:103120008368194201D001207047002070470AB11E
:103130000161704709040161704703685A6912F41C
:10314000806F01D1002070476FF480625A610023C4
:103150000363202280F83D2080F83E30026C42F06C
:103160000402026480F83C30012070472DE9F041F0
:1031700006460C46174698463BE0FFF7B3FB069B16
:10318000C01A404502D8B8F1000F32D1012D18D035
:1031900033689B6924EA03039BB2B3FA83F35B09A8
:1031A0009F4226D100233363202286F83D2086F8F3
:1031B0003E30326C42F02002326486F83C3001200E
:1031C00027E033685B6924EA03039BB2B3FA83F315
:1031D0005B09E5E733685B6924EA030C1FFA8CFCA2
:1031E000BCFA8CFC4FEA5C1C674511D1B8F1FF3F7B
:1031F000C3D1C4F30745012DECD033689B6924EAA1
:10320000030C1FFA8CFCBCFA8CFC4FEA5C1CEBE74D
:103210000020BDE8F0812DE9F84305460E469046B2
:10322000994653E01A6842F400721A602B686FF4F2
:1032300080625A6100232B63202285F83D2085F8A7
:103240003E302A6C42F004022A6485F83C300120AA
:103250004AE0FFF747FBA0EB0900404502D8B8F170
:10326000000F33D1012F17D02B689B6926EA030387
:103270009BB2003B18BF012343B300232B632022E2
:1032800085F83D2085F83E302A6C42F020022A6401
:1032900085F83C30012027E02B685B6926EA0303B0
:1032A0009BB2003B18BF0123E6E72B689C6926EA26
:1032B0000404A4B2003C18BF0124A4B12B685A69CD
:1032C00012F4806FAED1B8F1FF3FC2D1C6F3074709
:1032D000012FEAD12B685C6926EA0404A4B2003C01
:1032E00018BF0124E9E70020BDE8F883F0B583B0FA
:1032F00004460D4616461F46C36A082B0DD0012B07
:103300000BD013F5803F08D0036B122B0AD1026853
:10331000136843F48073136004E02268136843F475
:10332000807313600097334600224FF0011120464E
:10333000FFF71CFF80B92369B3F5804F16D12368CE
:1033400005F0FE051D613B46324613492046FFF756
:1033500062FFF8B903B0F0BD23681B6813F4807FE7
:1033600002D04FF4007323640320F3E7EB112268CB
:1033700003F0060343F0F00313613B46324607496E
:103380002046FFF748FF18B92368EDB21D61DAE760
:103390000120DFE70120DDE7020001000800010055
:1033A0002DE9F04184B004460D4616461F46C26A18
:1033B00001680B6843F480630B60082A0DD0012A72
:1033C0000BD012F5803F08D0036B112B0AD1026895
:1033D000136843F48073136004E02268136843F4B5
:1033E000807313600097334600224FF0011120468E
:1033F000FFF7BCFE98B92369B3F5804F19D1236854
:1034000045F00105EDB21D613B4632462A49204692
:10341000FFF701FF00284CD104B0BDE8F08123681C
:103420001B6813F4807F02D04FF4007323640320E1
:10343000F2E74FEAE51808F00608236848F0F002C2
:103440001A613B4632461D492046FFF7E4FE08B1AB
:103450000120E1E72368EDB21D613B463246164983
:103460002046FFF7D8FE08B10120D5E700220392DD
:10347000236859690391996903910399196841F483
:1034800080711960009733464FF001112046FFF715
:103490006DFE20B9226848F0F1031361B4E7236898
:1034A0001B6813F4807F02D04FF400732364032061
:1034B000B2E70120B0E700BF0200010008000100F0
:1034C00070B504460D46164623685B6913F0800FFD
:1034D00021D12046FFF731FEF8B9B5F1FF3FF3D017
:1034E000FFF700FA801BA84201D8002DECD1236819
:1034F0005B6913F0800FE7D100232363202284F857
:103500003D2084F83E30226C42F02002226484F890
:103510003C30012000E0002070BD0120FCE770B5C8
:1035200004460D46164623685B6913F0040F21D14B
:103530002046FFF702FEF8B9B5F1FF3FF3D0FFF7E1
:10354000D1F9801BA84201D8002DECD123685B691A
:1035500013F0040FE7D100232363202284F83D20D9
:1035600084F83E30226C42F02002226484F83C3021
:10357000012000E0002070BD0120FCE770B504468A
:103580000D46164614E06FF010025A6100232363C3
:10359000202284F83D2084F83E30226C226484F896
:1035A0003C30012025E023685B6913F0400F10D008
:1035B0002368586910F0400F1AD1586910F0100FA5
:1035C000E1D1FFF78FF9801BA842ECD8002DEFD195
:1035D000E9E700232363202284F83D2084F83E306D
:1035E000226C42F02002226484F83C30012000E08A
:1035F000002070BD002800F0CC8070B5044690F823
:103600003D30002B77D0242384F83D3022681368A6
:1036100023F0010313602268136843F4004313602E
:103620002268136823F40043136000F02DFE6268E3
:103630005A4B9A4264D85A4B98428CBF00230123BC
:10364000002B40F0A8805749A1FB00318B0C256866
:103650006A6822F03F0242EA91426A6021680A6A7F
:1036600022F03F0266684D4DAE424FD801331343FE
:103670000B622168CA6922F44F4222F0FF02666899
:10368000464B9E424CD8431E7600B3FBF6F3013303
:1036900040F6FC70034278D0C3F30B031343CB61B5
:1036A00021680B6823F0C003E269206A02431343D8
:1036B0000B6021688B6823F4034323F0FF03226926
:1036C000E068024313438B602168CB6823F0FF035B
:1036D0006269A06902431343CB602268136843F018
:1036E0000103136000202064202384F83D30206310
:1036F00084F83E0070BD80F83C30FEF71BFC82E78A
:10370000294B98428CBF0023012399E74FF496750B
:1037100005FB03F3254DA5FB03539B090133A6E7E6
:10372000A368BBB9451E06EB460CB5FBFCF501359D
:10373000C5F30B05B5FA85F56D0945BBC3B901386D
:1037400006EB4603B0FBF3F30133C3F30B0343F47F
:103750000043A3E7451E06EB860C0CEB8C0CB5FB77
:10376000FCF50135C5F30B05B5FA85F56D09E4E700
:10377000013806EB860303EB8303B0FBF3F301335D
:10378000C3F30B0343F4404388E7042386E7012394
:1037900084E7012070470120ACE700BFA08601004C
:1037A0007F841E0083DE1B43FF083D00D34D621063
:1037B0002DE9F04385B004460F46914698460C9E8D
:1037C000FFF790F8054694F83D00C0B2202804D0D9
:1037D0000227384605B0BDE8F08300951923012281
:1037E0004F492046FFF7C2FC002840F0928094F831
:1037F0003C30012B00F08F80012384F83C3023689B
:103800001A6812F0010F03D11A6842F001021A601F
:103810002268136823F400631360212384F83D3089
:10382000102384F83E3000232364C4F82490A4F8C5
:103830002A80638D23853B4BE3622B463246394613
:103840002046FFF753FD0746002866D10023039367
:1038500023685A6903929B690393039B11E0236CCD
:10386000042B01D00127B4E72268136843F40073E6
:103870001360F7E72A4631462046FFF750FE00283E
:103880002ED1238D002B36D02A4631462046FFF715
:1038900017FE0028E3D1626A236812781A61606A11
:1038A000431C6362618D89B2013989B26185238DC0
:1038B000013B9BB223852268516911F0040FD9D0D6
:1038C000002BD7D043781361636A01336362638D41
:1038D0009BB2013B9BB26385238D013B2385C9E7E6
:1038E000236C042B01D0012773E72268136843F48B
:1038F00000731360F7E72268136843F400731360E2
:10390000202384F83D30002384F83E3084F83C3096
:103910005FE702275DE702275BE7012759E700BF62
:10392000020010000000FFFF2DE9F04389B00446BB
:103930000F4691469846109E00230793FEF7D2FF4C
:10394000054694F83D00C0B2202804D0022738462E
:1039500009B0BDE8F0830095192301228049204673
:10396000FFF704FC002840F07A8194F83C30012BEA
:1039700000F07781012384F83C3023681A6812F044
:10398000010F03D11A6842F001021A60226813681D
:1039900023F400631360222384F83D30102384F85D
:1039A0003E3000232364C4F82490A4F82A80638D59
:1039B00023856C4BE3622B46324639462046FFF79F
:1039C000EFFC0746002840F04E81238D5BB903933E
:1039D00023685A6903929A690392039A1A6842F417
:1039E00000721A60F3E0012B0FD0022B21D0226865
:1039F000136843F4806313600023069323685A69B5
:103A000006929B690693069BE1E02268136823F403
:103A10008063136072B60023049323685A6904928A
:103A20009A690492049A1A6842F400721A6062B6A3
:103A3000CDE02268136843F40063136072B600237C
:103A4000059323685A6905929A690592059A1A683E
:103A500022F480621A6062B6B9E02A4631462046F6
:103A6000FFF78CFD002840F0008123681A69636A23
:103A70001A70636A01336362238D013B2385638D72
:103A80009BB2013B9BB26385A1E0009533460022C7
:103A900035492046FFF76AFB002840F0EA8022689B
:103AA000136823F48063136072B623681A69636A2B
:103AB0001A70636A01336362238D013B2385638D32
:103AC0009BB2013B9BB26385284B1B68DB08284AED
:103AD000A2FB03231B0A03EB8303C3EBC30307937C
:103AE0000799013907910799002928D023685A6955
:103AF00012F0040FF4D01A6842F400721A602368BE
:103B00001A69636A1A70636A01336362238D013B29
:103B10002385638D9BB2013B9BB2638562B62368AC
:103B20001A69636A1A70636A01336362238D013B09
:103B30002385638D9BB2013B9BB2638547E00023E5
:103B40002363202284F83D2084F83E30226C42F02A
:103B50002002226462B684F83C300127F7E600BFF9
:103B6000020010000000FFFF04000100E800002038
:103B700089B5F8142A4631462046FFF7FFFC002895
:103B800079D123681A69636A1A70636A01336362C0
:103B9000228D013A92B22285638D9BB2013B9BB28A
:103BA00063852368596911F0040F10D0032A48D0A7
:103BB00023681A69636A1A70636A01336362238D2A
:103BC000013B2385638D9BB2013B9BB26385218DB5
:103BD00000293BD00329CDD801293FF43EAF02296B
:103BE0007FF453AF00953346002224492046FFF767
:103BF000BDFA00283BD172B62268136843F4007303
:103C0000136023681A69636A1A70636A0133636216
:103C1000238D013B2385638D9BB2013B9BB2638562
:103C200062B623681A69636A1A70636A0133636251
:103C3000238D013B2385638D9BB2013B9BB2638542
:103C4000C5E71A6822F480621A60B1E7202384F87D
:103C50003D30002384F83E3084F83C3077E602277C
:103C600075E6022773E6012771E601276FE6012753
:103C70006DE601276BE6012769E600BF040001003D
:103C800082B0084B1B68084AA2FB03235B0A00FBB7
:103C900003F3019300BF019B5A1E0192002BF9D13F
:103CA00002B07047E8000020D34D6210002800F0F9
:103CB000F18170B582B00446036813F0010F2CD077
:103CC000994B5B6803F00C03042B1DD0964B5B688B
:103CD00003F00C03082B12D06368B3F5803F41D08A
:103CE000002B55D103F1804303F504331A6822F405
:103CF00080321A601A6822F480221A6037E08A4BF8
:103D00005B6813F4803FE7D0874B1B6813F4003FD8
:103D100003D06368002B00F0BF81236813F0020F0B
:103D200075D0814B5B6813F00C0F5FD07E4B5B68E6
:103D300003F00C03082B54D02369002B00F08A8079
:103D40007A4B01221A60FEF7CDFD0546764B1B68C3
:103D500013F0020F75D1FEF7C5FD401B0228F5D9FF
:103D600003209EE1704A136843F480331360636854
:103D700043B3FEF7B7FD05466B4B1B6813F4003FDA
:103D8000CBD1FEF7AFFD401B6428F5D9032088E1B5
:103D9000B3F5A02F09D0644B1A6822F480321A6060
:103DA0001A6822F480221A60E1E703F18043A3F548
:103DB0003C331A6842F480221A601A6842F4803256
:103DC0001A60D4E7FEF78EFD0546574B1B6813F4C7
:103DD000003FA2D0FEF786FD401B6428F5D90320E2
:103DE0005FE1514B5B6813F4803FA5D14E4B1B68DC
:103DF00013F0020F03D02369012B40F04F814A4A90
:103E0000136823F0F803616943EAC1031360236870
:103E100013F0080F33D0A369002B5CD0434B012271
:103E2000C3F88024FEF75EFD05463F4B5B6A13F046
:103E3000020F21D1FEF756FD401B0228F5D90320C1
:103E40002FE1394A136823F0F803616943EAC1039B
:103E50001360DCE7354B00221A60FEF743FD054690
:103E6000314B1B6813F0020FD1D0FEF73BFD401B16
:103E70000228F5D9032014E10120FFF701FF236890
:103E800013F0040F00F09680274BDB6913F0805F7E
:103E900034D1254BDA6942F08052DA61DB6903F0F4
:103EA00080530193019B0125214B1B6813F4807FF4
:103EB00026D0E368012B3DD0002B53D103F1804382
:103EC00003F504331A6A22F001021A621A6A22F018
:103ED00004021A6233E0154B0022C3F88024FEF777
:103EE00001FD0546104B5B6A13F0020FC7D0FEF7C9
:103EF000F9FC401B0228F5D90320D2E00025D3E7C6
:103F00000B4A136843F480731360FEF7EBFC06461C
:103F1000074B1B6813F4807FCBD1FEF7E3FC801BBB
:103F20006428F5D90320BCE00010024000004242A2
:103F3000007000405F4A136A43F001031362E368B4
:103F400033B3FEF7CFFC06465A4B1B6A13F0020F41
:103F50002FD1FEF7C7FC801B41F288339842F3D97A
:103F600003209EE0052B09D0524B1A6A22F0010271
:103F70001A621A6A22F004021A62E0E74D4B1A6ACA
:103F800042F004021A621A6A42F001021A62D6E78B
:103F9000FEF7A8FC0646474B1B6A13F0020F08D039
:103FA000FEF7A0FC801B41F288339842F3D903202E
:103FB00077E0E5B9E369002B72D03E4A526802F01F
:103FC0000C02082A56D0022B17D03B4B00221A664F
:103FD000FEF788FC0446374B1B6813F0007F47D080
:103FE000FEF780FC001B0228F5D9032059E0314A76
:103FF000D36923F08053D361DCE72F4B00221A668C
:10400000FEF770FC05462B4B1B6813F0007F06D0B3
:10401000FEF768FC401B0228F5D9032041E0236A23
:10402000B3F5803F1AD023494B6823F47413226AF6
:10403000606A024313434B601F4B01221A66FEF76E
:1040400051FC04461B4B1B6813F0007F0ED1FEF79A
:1040500049FC001B0228F5D9032022E0154A5368C9
:1040600023F40033A1680B435360DCE7002018E021
:10407000002016E0012B16D00E4B5B6803F4803154
:10408000226A914211D103F47013626A93420ED1F5
:10409000002006E001207047012002E0012000E03E
:1040A000002002B070BD0120FBE70120F9E70120EC
:1040B000F7E700BF00100240000042420F4B5B6870
:1040C00003F00C02082A01D00D487047C3F3834265
:1040D0000C49885C13F4803F0BD0084B5B68C3F33A
:1040E0004043094AD35C064A02FB00F0B0FBF3F000
:1040F0007047064B03FB00F0704700BF0010024002
:1041000000127A00AC590508BC59050800093D00A9
:10411000002800F0A08070B50D460446524B1B6885
:1041200003F007038B420BD24F4A136823F00703B7
:104130000B431360136803F007038B4240F08D803C
:10414000236813F0020F17D013F0040F04D0474A6E
:10415000536843F4E0635360236813F0080F04D0FE
:10416000424A536843F460535360404A536823F013
:10417000F003A1680B435360236813F0010F31D0A3
:104180006368012B20D0022B25D0384A126812F028
:10419000020F64D035494A6822F0030213434B6092
:1041A000FEF7A0FB0646314B5B6803F00C03626828
:1041B000B3EB820F16D0FEF795FB801B41F28833DC
:1041C0009842F0D9032045E0284A126812F4003FD3
:1041D000E0D101203EE0254A126812F0007FD9D1DB
:1041E000012037E0204B1B6803F00703AB420AD9DC
:1041F0001D4A136823F007032B431360136803F071
:104200000703AB422DD1236813F0040F06D0174AE1
:10421000536823F4E063E1680B435360236813F0B1
:10422000080F07D0114A536823F46053216943EA09
:10423000C1035360FFF742FF0C4B5B68C3F30313EA
:104240000B4AD35CD8400B4B18600B4B1868FEF739
:1042500005FB002070BD012070470120FAE7012016
:10426000F8E70120F6E700BF0020024000100240FE
:1042700048590508E8000020F0000020014B1868AC
:10428000704700BFE800002008B5FFF7F7FF044BB8
:104290005B68C3F30223034AD35CD84008BD00BF68
:1042A000001002405859050808B5FFF7E7FF044B16
:1042B0005B68C3F3C223034AD35CD84008BD00BF88
:1042C000001002405859050870B582B0044600231A
:1042D0000193006801F05DFB054610B1284602B06D
:1042E00070BD206801F01EFE38B90123A364A36CE1
:1042F000012B0BD02E46284614E00023A36420682F
:1043000001F047FB0028F2D00546E7E700212068CE
:1043100001F0A6FC0028EDD04FF08055DEE7019BB0
:1043200001330193019A4FF6FE739A4213D896B95E
:104330000021206801F094FCE0B91249206801F0E6
:104340003DFD0646C0B90021206801F00DFBC30FFA
:10435000E5D01E46E3E7019A4FF6FE739A420ED867
:1043600010F0804302D001236364B7E70022626447
:104370001D46B3E70546B1E74FF08055AEE74FF075
:104380008075ABE7000010C1F8B5846AC66AA6B9AB
:10439000F8BD386801F0C3FA2070C0F307236370DA
:1043A000C0F30743A370000EE0700434043E0135EF
:1043B000072DEED9BC62FE62EAE707460025F7E763
:1043C000F0B583B0046A466ADEB903B0F0BD237865
:1043D0000193627843EA02230193A27843EA0243FD
:1043E0000193E27843EA026301930434043E01A995
:1043F000386801F097FA0135072DE8D93C627E62F2
:10440000E3E707460025F7E770B581B104460E469D
:10441000016D0904006801F03BFC054608B128461F
:1044200070BD0021206801F09FFA3060F7E74FF07F
:104430000065F4E72DE9F04F87B005460C461646B7
:104440009B46DDF840A0FEF74DFA002C36D08146A1
:1044500095F83470FFB2012F40F005810023AB6363
:1044600006EB0B03EA6D93422ED8032385F8343014
:104470002B680022DA626B6C012B00D076024FF0C1
:10448000FF3300934FEA4B230193902302930223BF
:10449000039300230493012305936946286801F0E0
:1044A00066FABBF1010F14D902232B633146286849
:1044B00001F05CFBA0B9DDF8048038E0AB6B43F0A1
:1044C0000063AB630127D3E0AB6B43F00073AB63D6
:1044D000CEE001232B633146286801F02FFBE9E78A
:1044E0002B68654A9A63AB6B1843A863012385F870
:1044F000343000232B63BBE0286801F010FA2070F1
:10450000C0F307236370C0F30743A370000EE0708D
:104510000434A8F104080136072EEDD9FEF7E2F9BC
:10452000A0EB0900504510D2BAF1000F0DD0286859
:10453000466B40F22A331E4015D1436B13F4004FF3
:10454000ECD0B8F1000FE9D0E6E72B684A4A9A634D
:10455000AB6B43F00043AB63012385F83430002399
:104560002B63032784E0436B13F4807F05D0BBF1FA
:10457000010F02D96B6C032B38D12B685A6B12F0E8
:10458000080F44D15A6B12F0020F4CD15A6B12F043
:10459000200F54D12868436B13F4001F5BD0B8F18F
:1045A000000F58D001F0BBF92070C0F307236370EF
:1045B000C0F30743A370000EE0700434A8F10408B0
:1045C000FEF790F9A0EB0900504502D2BAF1000FB6
:1045D000E0D12B68284A9A63AB6B43F00043AB638E
:1045E000012385F8343000232B6341E001F006FB02
:1045F00003460028C1D02A681F499163AA6B134360
:10460000AB63012385F8343000232B6330E01A4A72
:104610009A63AB6B43F00803AB63012385F8343036
:1046200000232B6324E0144A9A63AB6B43F002032C
:10463000AB63012385F8343000232B6318E00E4A66
:104640009A63AB6B43F02003AB63012385F83430EE
:1046500000232B630CE040F23A538363012385F877
:104660003430002704E0AB6B43F00053AB63012709
:10467000384607B0BDE8F08FFF0540002DE9F04F48
:104680008BB005460C4616469B46DDF850A0FEF75B
:1046900029F9002C37D0804695F83470FFB2012FED
:1046A00040F0E2800023AB6306EB0B03EA6D93421C
:1046B0002FD8032385F834302B680022DA626B6C24
:1046C000012B00D076024FF0FF3304934FEA4B23C7
:1046D00005939023069300230793089301230993DE
:1046E00004A9286801F043F9BBF1010F16D9202372
:1046F0002B633146286801F069FA0190019BABB940
:10470000DDF8149040E0AB6B43F00063AB6301272E
:10471000AFE0AB6B43F00073AB63AAE010232B63F5
:104720003146286801F03AFA0190E7E72B68534ACE
:104730009A63A86B019B1843A863012385F8343062
:1047400000232B6395E023780393627843EA0223E6
:104750000393A27843EA02430393E27843EA0263B5
:1047600003930434A9F1040903A9286801F0DAF8D5
:104770000136072EE7D9FEF7B5F8A0EB0800504543
:1047800010D2BAF1000F0DD02868466B40F21A33F0
:104790001E4015D1436B13F4804FECD0B9F1000FDC
:1047A000E9D0E6E72B68354A9A63A86B019B18436A
:1047B000A863012385F8343000232B63032758E0D6
:1047C000436B13F4807F05D0BBF1010F02D96B6CF2
:1047D000032B18D12B685A6B12F0080F24D15A6B97
:1047E00012F0020F2CD15A6B12F0100F34D0234A62
:1047F0009A63AB6B43F01003AB63012385F834304D
:1048000000232B6335E001F0F9F903460028E1D0DD
:104810002A681A499163AA6B1343AB63012385F895
:10482000343000232B6324E0144A9A63AB6B43F0CB
:104830000803AB63012385F8343000232B6318E0B1
:104840000E4A9A63AB6B43F00203AB63012385F816
:10485000343000232B630CE040F23A529A63012378
:1048600085F83430002704E0AB6B43F00053AB63B2
:10487000012738460BB0BDE8F08F00BFFF054000B0
:1048800070470000436E9B0F0B70436EC3F383634E
:104890004B7090F8673003F003038B7090F866302C
:1048A000CB7090F865300B7190F864304B71836E6B
:1048B0001B0DCB80B0F86A3003F00F030B72836ED0
:1048C000C3F3C0334B72836EC3F380338B72836E3A
:1048D000C3F34033CB72836EC3F300330B730023F7
:1048E0004B73436C002B40F08680826E40F6FC7365
:1048F00003EA8203C26E43EA92730B61C36EC3F391
:10490000C2630B7590F86F3003F007034B75C36EED
:10491000C3F342538B75C36EC3F38243CB75C36E2F
:10492000C3F3C2330B760B69013343650A7E02F091
:1049300007020232934043650A7A02F00F0C01220B
:1049400002FA0CF28265520A02FB03F3C3654FF4CC
:1049500000730366C36EC3F380334B76C36EC3F339
:10496000C6138B76C36E03F07F03CB76036FDB0F2A
:104970000B77036FC3F341734B77036FC3F382630A
:104980008B77036FC3F38353CB77036FC3F340532A
:1049900081F82030002381F82130B0F8722002F035
:1049A000010281F82220026FC2F3C03281F8232075
:1049B000026FC2F3803281F82420026FC2F34032CA
:1049C00081F82520026FC2F3003281F82620026FA1
:1049D000C2F3812281F82720026FC2F3012281F8FD
:1049E0002820026FC2F3460281F82920012281F8B3
:1049F0002A2018467047012B11D1836E1B0403F443
:104A00007C13B0F86E2013430B610B6901339B02DA
:104A10004365C3654FF40073836503669AE70368D3
:104A2000054A9A63836B43F080538363012380F8C4
:104A300034301846704700BFFF05400070B590B095
:104A400004460123ADF81230006800F074FF00281E
:104A50006CD0636C032B45D1636C032B5DD1636C0D
:104A6000032B1DD0BDF8121021650904206801F048
:104A70006AF9054600285BD10021206800F074FF28
:104A800060660421206800F06FFFA066082120689E
:104A900000F06AFFE0660C21206800F065FF2067E7
:104AA0000421206800F060FF000DE06405A92046A5
:104AB000FFF7E8FE00283ED1226D12040023206893
:104AC00001F0B6F8054698BB234653F8106B93E8FF
:104AD00007008DE80700043494E80E00304600F02B
:104AE00005FF25E0206801F019F9054600BB00210B
:104AF000206800F039FF60670421206800F034FF6F
:104B0000A0670821206800F02FFFE0670C212068D3
:104B100000F02AFFC4F880009EE70DF11201206822
:104B200001F0B6F90546002899D001E04FF0806504
:104B3000284610B070BD4FF08055F9E770B58AB0C7
:104B40000446002304930593069307930893762362
:104B500009930AAB13E907008DE8070004AB0ECBFD
:104B6000206800F0C3FE18B1012528460AB070BDC8
:104B700005461A4E0023C6F8A030206800F0D7FE84
:104B80000123C6F8A0300220FDF7B2FE2046FFF751
:104B90009BFB30B1012584F83450A36B0343A3631E
:104BA000E3E72046FFF74AFF30B1012584F834508F
:104BB000A36B0343A363D8E74FF40071206800F0B0
:104BC000A5FF0028D1D0236805499963A36B03434F
:104BD000A363012584F83450C7E700BF00003042CA
:104BE000FF054000A8B110B5044690F8343063B119
:104BF000032384F834302046FFF7A0FF58B9A063A0
:104C00002063012384F8343010BD0377FDF7B6FB31
:104C1000EEE7012070470120F6E7436C0B60836CE0
:104C20004B60C36C8B60036DCB60436D0B61836D18
:104C30004B61C36D8B61036ECB610020704710B573
:104C400082B004460023019301A9FFF7DDFB10B1F8
:104C5000A36B0343A3630198C0F3432002B010BDCC
:104C600010B5446A236840F23A529A632046FFF72F
:104C7000E6FF012384F8343000232363053801283C
:104C800005D9A36B53B9204601F0A7F910BD2068E0
:104C900000F0B4FFA36B0343A363F2E72046FFF7E2
:104CA000EFFDF3E710B5446A236840F23A529A6385
:104CB0002046FFF7C4FF012384F834300023236328
:104CC0000538012805D9A36B53B9204601F085F9B1
:104CD00010BD206800F092FFA36B0343A363F2E7CB
:104CE0002046FFF7CDFDF3E738B50446056B0368B2
:104CF0005A6B12F4004F02D015F0080F28D15A6BEE
:104D000012F4807F5AD04FF480729A632268D36B7A
:104D100023F4414323F03A03D3632268D36A23F098
:104D20000103D36215F0080F26D015F0220F12D11F
:104D3000236840F23A529A63012384F83430002306
:104D4000236315F0030F13D0204601F050F901E062
:104D5000FFF71AFB38BD206800F050FF034600281B
:104D6000E6D0A26B1343A3632046FFF789FDDFE77C
:104D7000204601F037F9EDE715F0800FEAD015F085
:104D8000200F0ED115F0030FE4D12268D36A23F06F
:104D90000803D362012384F83430204601F022F95D
:104DA000D8E7206800F02AFF03460028EAD0A26B6B
:104DB0001343A3632046FFF763FDE3E75A6B12F446
:104DC000804F02D015F0080F4CD15A6B12F03A0FF9
:104DD000C0D05A6B12F0020F03D0A26B42F0020255
:104DE000A2635A6B12F0080F03D0A26B42F00802C4
:104DF000A2635A6B12F0200F03D0A26B42F0200284
:104E0000A2635A6B12F0100F03D0A26B42F0100293
:104E1000A26340F23A729A632268D36B23F44E7312
:104E200023F00203D363206800F0E8FEA36B034382
:104E3000A36315F0080F19D115F0800F8AD015F073
:104E4000300F1CD115F0030F26D0236C174A5A637C
:104E5000206CFDF719FE00283FF47CAF206CFFF7B3
:104E600021FF77E72046FFF7ABFA73E7012384F8C9
:104E70003430002323632046FFF702FD6AE7E36B2B
:104E80000B4A5A63E06BFDF7FFFD00283FF462AF69
:104E9000E06BFFF7E5FE5DE70023A363012284F8E2
:104EA00034202363204601F098F853E7A54C00080E
:104EB000614C0008002856D010B50446436A33B947
:104EC0004368B3F5827F05D00023C36102E000236D
:104ED000036143610023A36294F85130002B3CD05E
:104EE000022384F851302268136823F040031360D2
:104EF000636803F48273A26802F404421343E26815
:104F000002F400621343226902F002021343626951
:104F100002F001021343A26902F400721343E26932
:104F200002F038021343226A02F080021343A26A9D
:104F300002F40052216813430B60638B226803F074
:104F4000040353602268D36923F40063D361002013
:104F50006065012384F8513010BD84F8503020463C
:104F6000FDF798FABCE70120704760B370B50E46B4
:104F7000154604468369B3F5807F26D090F841300A
:104F8000E3B1214651F8080B00F016FCA268314647
:104F9000206800F045FC236BA2682946606800F099
:104FA00067FC2268A16852F8213043F0010342F8FF
:104FB0002130012384F84130002070BD80F840305A
:104FC000FCF7F6FEDDE7012070470120F5E7000061
:104FD00030B4036A026A22F0010202624268846904
:104FE00024F073040D682C4323F0020C8B6843EA11
:104FF0000C03104DA84203D005F50065A84205D169
:1050000023F00803CD682B4323F00403094DA84285
:1050100003D005F50065A84205D122F440724D6920
:105020002A438D692A43426084614A68426303626D
:1050300030BC7047002C014030B4036A026A22F48D
:10504000807202624268C46924F0730C0C6844EAFE
:105050000C0523F400738C6843EA0423114CA0422E
:1050600003D004F50064A04206D123F40063CC68A9
:1050700043EA042323F480630A4CA04203D004F5DE
:105080000064A04207D122F440524C6942EA041263
:105090008C6942EA04124260C5614A68C2630362D5
:1050A00030BC7047002C014030B4036A026A22F41D
:1050B000805202624468C26922F4E6420D6842EA04
:1050C000052223F400538D6843EA0533094DA842B5
:1050D00003D005F50065A84204D124F480444D694D
:1050E00044EA85144460C2614A680264036230BCC9
:1050F000704700BF002C014010B4036A046A24F01A
:1051000001040462846924F0F00C4CEA021223F0DA
:105110000A030B438261036210BC704710B4036A38
:10512000046A24F010040462846924F4704C4CEA8C
:10513000023223F0A00343EA01138261036210BC30
:105140007047836823F070030B4343F007038360C9
:10515000704770470368244A904212D002F50062FB
:1051600090420ED0B0F1804F0BD0A2F59832904211
:1051700007D002F58062904203D002F5806290422F
:1051800003D123F070034A681343174A904212D0A8
:1051900002F5006290420ED0B0F1804F0BD0A2F524
:1051A0009832904207D002F58062904203D002F517
:1051B0008062904203D123F44073CA68134323F002
:1051C00080034A69134303608B68C3620B68836280
:1051D000054B984203D003F50063984201D10B6957
:1051E0000363012343617047002C014040B310B5B5
:1051F000044690F83D30F3B1022384F83D30214657
:1052000051F8040BFFF7A6FF012384F8463084F819
:105210003E3084F83F3084F8403084F8413084F8E0
:10522000423084F8433084F8443084F8453084F8C0
:105230003D30002010BD80F83C30FDF7D9F9DBE7A8
:105240000120704740B310B5044690F83D30F3B1EB
:10525000022384F83D30214651F8040BFFF77AFF12
:10526000012384F8463084F83E3084F83F3084F8D7
:10527000403084F8413084F8423084F8433084F878
:10528000443084F8453084F83D30002010BD80F86B
:105290003C30FFF75EFFDBE70120704730B4036A64
:1052A000026A22F0100202624468826922F4E64235
:1052B0000D6842EA052223F020038D6843EA0513B6
:1052C000114DA84203D005F50065A84206D123F090
:1052D0008003CD6843EA051323F040030A4DA8423A
:1052E00003D005F50065A84207D124F440644D6958
:1052F00044EA85048D6944EA8504446082614A6811
:105300008263036230BC7047002C014038B590F8CE
:105310003C30012B66D004460D46012380F83C301A
:105320000C2A5AD8DFE802F0075959591B59595924
:105330003059595944000068FFF74AFE22689369C2
:1053400043F0080393612268936923F00403936197
:105350002268936929690B43936100203EE000684D
:10536000FFF79CFF2268936943F40063936122680E
:10537000936923F48063936122689369296943EAFE
:1053800001239361002029E00068FFF755FE2268A1
:10539000D36943F00803D3612268D36923F004037F
:1053A000D3612268D36929690B43D361002015E0DA
:1053B0000068FFF779FE2268D36943F40063D36184
:1053C0002268D36923F48063D3612268D369296991
:1053D00043EA0123D361002000E00120002384F888
:1053E0003C3038BD0220FCE710B4846824F47F4CC4
:1053F00042EA03220A4342EA0C02826010BC704770
:1054000090F83C30012B78D010B50446012380F889
:105410003C30022380F83D300268936823F47F43D8
:1054200023F0770393600B68602B4CD029D8402B76
:1054300054D00CD9502B22D1CA6849680068FFF7B4
:105440005BFE50212068FFF77CFE002005E0202B4A
:105450000DD009D9302B0AD00120012384F83D302A
:10546000002384F83C3010BD0BB1102B05D1194638
:105470002068FFF766FE0020EFE70120EDE701203E
:10548000EBE7B3F5805F34D0B3F5005F0CD1CB68A8
:105490004A6889680068FFF7A7FF2268936843F4A9
:1054A000804393600020D8E7702B24D1CB684A68F2
:1054B00089680068FFF798FF2268936843F07703D4
:1054C00093600020C9E7CA6849680068FFF726FEB4
:1054D00060212068FFF735FE0020BEE7CA684968F2
:1054E0000068FFF709FE40212068FFF72AFE002030
:1054F000B3E70020B1E70120AFE7022070470000CA
:1055000090F83C30012B34D010B4012380F83C30AB
:10551000022380F83D3003685A689C6822F0700CC2
:105520000A6842EA0C025A600368134A934212D096
:1055300002F5006293420ED0B3F1804F0BD0A2F57A
:105540009832934207D002F58062934203D002F56D
:105550008062934204D124F080044A6814439C6022
:10556000012380F83D30002380F83C30184610BC01
:1055700070470220704700BF002C014010B5044660
:105580000268136923F44053C1680B4313618368B5
:105590000269134342691A430168CB6823F4B0538C
:1055A00023F00C031343CB600268536923F4407368
:1055B00081690B4353610268134B9A4220D0FEF776
:1055C00063FE024602EB820202EB820263689B00EA
:1055D000B2FBF3F20D48A0FB02314909642303FB3F
:1055E00011231B013233A0FB03235B0903F0F002FC
:1055F00002EB011203F00F03216813448B6010BD0E
:10560000FEF752FE0246DDE7003801401F85EB51F0
:105610002DE9F84305460F4616469946DDF82080E9
:105620002C68246837EA04030CBF4FF0010C4FF0DC
:10563000000CB4452DD1B8F1FF3FF1D0B8F1000F07
:1056400005D0FDF74FF9A0EB09004045E8D92A68DD
:1056500002F10C0353E8003F23F4D0730C3242E80C
:1056600000310029F3D12A6802F1140353E8003F06
:1056700023F00103143242E800310029F3D1202342
:1056800085F8413085F84230002385F8403003200A
:1056900000E00020BDE8F88360B310B5044690F840
:1056A000413013B3242384F841302268D36823F4B3
:1056B0000053D3602046FFF761FF2268136923F48B
:1056C000904313612268536923F02A0353612268CF
:1056D000D36843F40053D36000206064202384F82F
:1056E000413084F84230606310BD80F84030FDF7EF
:1056F0002FF8D7E7012070472DE9F04182B01E4610
:1057000090F84130DBB2202B4BD104460D46904639
:1057100000294AD00AB9012044E000234364212330
:1057200080F84130FDF7DEF80746A4F82480A4F89D
:105730002680A368B3F5805F02D04FF000080FE029
:105740002369FBB14FF000080AE038F8023B2268F9
:10575000C3F308035360E28C92B2013A92B2E2843E
:10576000E38C9BB28BB100963B4600228021204601
:10577000FFF74EFFD8B9002DE7D015F8012B2368AD
:105780005A60E8E7A8460025EAE700963B46002273
:1057900040212046FFF73CFF58B9202384F84130D0
:1057A00000E0022002B0BDE8F0810120FAE703200A
:1057B000F8E70320F6E7000010B40A6850F822303A
:1057C00023F0010340F822308B68082B24D00024FA
:1057D0004A6822431343CA6813430A6913434A6958
:1057E0001343CA6913430A6A13434A6A13438A6A12
:1057F0001343CA6A13430A6B13438A6913434A6B00
:105800001343096850F82140044A22401A4340F8E3
:105810002120002010BC70474024D9E78000F0FF11
:1058200000B5013250F8223003F0404C0B68D1F83B
:1058300004E043EA0E13D1F808E043EA0E23D1F85E
:105840000CE043EA0E43D1F810E00EF1FF3E43EACC
:105850000E53D1F814E0AEF1020E43EA0E638969EB
:105860000B434CEA030340F8223000205DF804FBB0
:10587000B3F5804F05D06FF0704340F82230002020
:10588000704730B450F82230094C1C400B684D680A
:1058900043EA05138D6843EA05238D692B43C968E4
:1058A00043EA0143234340F82230002030BC7047D4
:1058B0000000F0CF0B4B1B680B4AA2FB03235B0AD3
:1058C00041F2883202FB03F31A46013B3AB1426BC4
:1058D00012F0800FF8D0C5238363002070474FF08B
:1058E00000407047E8000020D34D621084B00DF1F5
:1058F000040C8CE80E000B461343039A1343049ADE
:105900001343059A1343069A1343426822F4FD4257
:1059100022F07F0213434360002004B07047D0F8A8
:10592000800070470B68C0F8803000207047032368
:10593000036000207047006800F0030070470B68A8
:1059400083604B688A681343CA6813430A69134328
:10595000C26822F47F6222F00F021343C36000206A
:1059600070470069C0B270471430405870470B68E8
:1059700043624B6883628B68CA6813430A691343A6
:105980004A691343C26A22F0F7021343C36200203C
:10599000704710B586B00446002301930293039329
:1059A00004934FF48063059301A9FFF7C8FF2046D5
:1059B000FFF780FF06B010BD38B504460D46504BCA
:1059C0001B685049A1FB03135B0A03FB02F2134659
:1059D000013A002B5DD0636B13F0450FF7D013F441
:1059E000006FF4D1636B13F0040F06D1636B13F0F7
:1059F000010F05D00120A0634DE00420A0634AE020
:105A0000C523A3632046FFF7ACFFA84201D00120C5
:105A100041E000212046FFF7A7FF03463A4818401F
:105A2000C8B3002B38DB13F0804F38D113F0005F80
:105A300037D113F0805F36D113F0006F36D113F0F9
:105A4000806F36D113F0807F36D113F4000F36D13A
:105A500013F4800F36D113F4001F36D113F4801FD6
:105A600036D113F4802F36D113F4003F36D113F41E
:105A7000803F36D113F4004F36D113F4804F36D126
:105A800013F4005F36D113F0080F36D04FF4000046
:105A900001E04FF0004038BD4FF00070FBE74020C0
:105AA000F9E78020F7E74FF48070F4E74FF40070D7
:105AB000F1E74FF48060EEE74FF40060EBE74FF45E
:105AC0008050E8E74FF40050E5E74FF48040E2E70C
:105AD0004FF40040DFE74FF40030DCE74FF4802064
